{
  "_format": "hh-sol-artifact-1",
  "contractName": "NFTCollection",
  "sourceName": "contracts/NFTCollection.sol",
  "abi": [
    {
      "inputs": [],
      "stateMutability": "nonpayable",
      "type": "constructor"
    },
    {
      "anonymous": false,
      "inputs": [
        {
          "indexed": true,
          "internalType": "address",
          "name": "owner",
          "type": "address"
        },
        {
          "indexed": true,
          "internalType": "address",
          "name": "approved",
          "type": "address"
        },
        {
          "indexed": true,
          "internalType": "uint256",
          "name": "tokenId",
          "type": "uint256"
        }
      ],
      "name": "Approval",
      "type": "event"
    },
    {
      "anonymous": false,
      "inputs": [
        {
          "indexed": true,
          "internalType": "address",
          "name": "owner",
          "type": "address"
        },
        {
          "indexed": true,
          "internalType": "address",
          "name": "operator",
          "type": "address"
        },
        {
          "indexed": false,
          "internalType": "bool",
          "name": "approved",
          "type": "bool"
        }
      ],
      "name": "ApprovalForAll",
      "type": "event"
    },
    {
      "anonymous": false,
      "inputs": [
        {
          "indexed": true,
          "internalType": "address",
          "name": "previousOwner",
          "type": "address"
        },
        {
          "indexed": true,
          "internalType": "address",
          "name": "newOwner",
          "type": "address"
        }
      ],
      "name": "OwnershipTransferred",
      "type": "event"
    },
    {
      "anonymous": false,
      "inputs": [
        {
          "indexed": true,
          "internalType": "address",
          "name": "from",
          "type": "address"
        },
        {
          "indexed": true,
          "internalType": "address",
          "name": "to",
          "type": "address"
        },
        {
          "indexed": true,
          "internalType": "uint256",
          "name": "tokenId",
          "type": "uint256"
        }
      ],
      "name": "Transfer",
      "type": "event"
    },
    {
      "inputs": [
        {
          "internalType": "address",
          "name": "to",
          "type": "address"
        },
        {
          "internalType": "uint256",
          "name": "tokenId",
          "type": "uint256"
        }
      ],
      "name": "approve",
      "outputs": [],
      "stateMutability": "nonpayable",
      "type": "function"
    },
    {
      "inputs": [
        {
          "internalType": "address",
          "name": "owner",
          "type": "address"
        }
      ],
      "name": "balanceOf",
      "outputs": [
        {
          "internalType": "uint256",
          "name": "",
          "type": "uint256"
        }
      ],
      "stateMutability": "view",
      "type": "function"
    },
    {
      "inputs": [
        {
          "internalType": "uint256",
          "name": "tokenId",
          "type": "uint256"
        }
      ],
      "name": "getApproved",
      "outputs": [
        {
          "internalType": "address",
          "name": "",
          "type": "address"
        }
      ],
      "stateMutability": "view",
      "type": "function"
    },
    {
      "inputs": [
        {
          "internalType": "uint256",
          "name": "tokenId",
          "type": "uint256"
        }
      ],
      "name": "getImageURI",
      "outputs": [
        {
          "internalType": "string",
          "name": "",
          "type": "string"
        }
      ],
      "stateMutability": "view",
      "type": "function"
    },
    {
      "inputs": [
        {
          "internalType": "address",
          "name": "owner",
          "type": "address"
        },
        {
          "internalType": "address",
          "name": "operator",
          "type": "address"
        }
      ],
      "name": "isApprovedForAll",
      "outputs": [
        {
          "internalType": "bool",
          "name": "",
          "type": "bool"
        }
      ],
      "stateMutability": "view",
      "type": "function"
    },
    {
      "inputs": [
        {
          "internalType": "string",
          "name": "tokenURI",
          "type": "string"
        },
        {
          "internalType": "string",
          "name": "imageURI",
          "type": "string"
        }
      ],
      "name": "mintNFT",
      "outputs": [],
      "stateMutability": "nonpayable",
      "type": "function"
    },
    {
      "inputs": [],
      "name": "name",
      "outputs": [
        {
          "internalType": "string",
          "name": "",
          "type": "string"
        }
      ],
      "stateMutability": "view",
      "type": "function"
    },
    {
      "inputs": [],
      "name": "owner",
      "outputs": [
        {
          "internalType": "address",
          "name": "",
          "type": "address"
        }
      ],
      "stateMutability": "view",
      "type": "function"
    },
    {
      "inputs": [
        {
          "internalType": "uint256",
          "name": "tokenId",
          "type": "uint256"
        }
      ],
      "name": "ownerOf",
      "outputs": [
        {
          "internalType": "address",
          "name": "",
          "type": "address"
        }
      ],
      "stateMutability": "view",
      "type": "function"
    },
    {
      "inputs": [],
      "name": "renounceOwnership",
      "outputs": [],
      "stateMutability": "nonpayable",
      "type": "function"
    },
    {
      "inputs": [
        {
          "internalType": "address",
          "name": "from",
          "type": "address"
        },
        {
          "internalType": "address",
          "name": "to",
          "type": "address"
        },
        {
          "internalType": "uint256",
          "name": "tokenId",
          "type": "uint256"
        }
      ],
      "name": "safeTransferFrom",
      "outputs": [],
      "stateMutability": "nonpayable",
      "type": "function"
    },
    {
      "inputs": [
        {
          "internalType": "address",
          "name": "from",
          "type": "address"
        },
        {
          "internalType": "address",
          "name": "to",
          "type": "address"
        },
        {
          "internalType": "uint256",
          "name": "tokenId",
          "type": "uint256"
        },
        {
          "internalType": "bytes",
          "name": "data",
          "type": "bytes"
        }
      ],
      "name": "safeTransferFrom",
      "outputs": [],
      "stateMutability": "nonpayable",
      "type": "function"
    },
    {
      "inputs": [
        {
          "internalType": "address",
          "name": "operator",
          "type": "address"
        },
        {
          "internalType": "bool",
          "name": "approved",
          "type": "bool"
        }
      ],
      "name": "setApprovalForAll",
      "outputs": [],
      "stateMutability": "nonpayable",
      "type": "function"
    },
    {
      "inputs": [
        {
          "internalType": "uint256",
          "name": "tokenId",
          "type": "uint256"
        },
        {
          "internalType": "string",
          "name": "newImageURI",
          "type": "string"
        }
      ],
      "name": "setTokenImage",
      "outputs": [],
      "stateMutability": "nonpayable",
      "type": "function"
    },
    {
      "inputs": [
        {
          "internalType": "bytes4",
          "name": "interfaceId",
          "type": "bytes4"
        }
      ],
      "name": "supportsInterface",
      "outputs": [
        {
          "internalType": "bool",
          "name": "",
          "type": "bool"
        }
      ],
      "stateMutability": "view",
      "type": "function"
    },
    {
      "inputs": [],
      "name": "symbol",
      "outputs": [
        {
          "internalType": "string",
          "name": "",
          "type": "string"
        }
      ],
      "stateMutability": "view",
      "type": "function"
    },
    {
      "inputs": [
        {
          "internalType": "uint256",
          "name": "index",
          "type": "uint256"
        }
      ],
      "name": "tokenByIndex",
      "outputs": [
        {
          "internalType": "uint256",
          "name": "",
          "type": "uint256"
        }
      ],
      "stateMutability": "view",
      "type": "function"
    },
    {
      "inputs": [
        {
          "internalType": "address",
          "name": "owner",
          "type": "address"
        },
        {
          "internalType": "uint256",
          "name": "index",
          "type": "uint256"
        }
      ],
      "name": "tokenOfOwnerByIndex",
      "outputs": [
        {
          "internalType": "uint256",
          "name": "",
          "type": "uint256"
        }
      ],
      "stateMutability": "view",
      "type": "function"
    },
    {
      "inputs": [
        {
          "internalType": "uint256",
          "name": "tokenId",
          "type": "uint256"
        }
      ],
      "name": "tokenURI",
      "outputs": [
        {
          "internalType": "string",
          "name": "",
          "type": "string"
        }
      ],
      "stateMutability": "view",
      "type": "function"
    },
    {
      "inputs": [],
      "name": "totalSupply",
      "outputs": [
        {
          "internalType": "uint256",
          "name": "",
          "type": "uint256"
        }
      ],
      "stateMutability": "view",
      "type": "function"
    },
    {
      "inputs": [
        {
          "internalType": "address",
          "name": "from",
          "type": "address"
        },
        {
          "internalType": "address",
          "name": "to",
          "type": "address"
        },
        {
          "internalType": "uint256",
          "name": "tokenId",
          "type": "uint256"
        }
      ],
      "name": "transferFrom",
      "outputs": [],
      "stateMutability": "nonpayable",
      "type": "function"
    },
    {
      "inputs": [
        {
          "internalType": "address",
          "name": "newOwner",
          "type": "address"
        }
      ],
      "name": "transferOwnership",
      "outputs": [],
      "stateMutability": "nonpayable",
      "type": "function"
    }
  ],
  "bytecode": "0x60806040523480156200001157600080fd5b506040518060400160405280601d81526020017f596f7572205456204368617261637465727320436f6c6c656374696f6e0000008152506040518060400160405280600781526020017f545643484152530000000000000000000000000000000000000000000000000081525081600090816200008f919062000412565b508060019081620000a1919062000412565b505050620000c4620000b8620000ca60201b60201c565b620000d260201b60201c565b620004f9565b600033905090565b6000600a60009054906101000a900473ffffffffffffffffffffffffffffffffffffffff16905081600a60006101000a81548173ffffffffffffffffffffffffffffffffffffffff021916908373ffffffffffffffffffffffffffffffffffffffff1602179055508173ffffffffffffffffffffffffffffffffffffffff168173ffffffffffffffffffffffffffffffffffffffff167f8be0079c531659141344cd1fd0a4f28419497f9722a3daafe3b4186f6b6457e060405160405180910390a35050565b600081519050919050565b7f4e487b7100000000000000000000000000000000000000000000000000000000600052604160045260246000fd5b7f4e487b7100000000000000000000000000000000000000000000000000000000600052602260045260246000fd5b600060028204905060018216806200021a57607f821691505b60208210810362000230576200022f620001d2565b5b50919050565b60008190508160005260206000209050919050565b60006020601f8301049050919050565b600082821b905092915050565b6000600883026200029a7fffffffffffffffffffffffffffffffffffffffffffffffffffffffffffffffff826200025b565b620002a686836200025b565b95508019841693508086168417925050509392505050565b6000819050919050565b6000819050919050565b6000620002f3620002ed620002e784620002be565b620002c8565b620002be565b9050919050565b6000819050919050565b6200030f83620002d2565b620003276200031e82620002fa565b84845462000268565b825550505050565b600090565b6200033e6200032f565b6200034b81848462000304565b505050565b5b8181101562000373576200036760008262000334565b60018101905062000351565b5050565b601f821115620003c2576200038c8162000236565b62000397846200024b565b81016020851015620003a7578190505b620003bf620003b6856200024b565b83018262000350565b50505b505050565b600082821c905092915050565b6000620003e760001984600802620003c7565b1980831691505092915050565b6000620004028383620003d4565b9150826002028217905092915050565b6200041d8262000198565b67ffffffffffffffff811115620004395762000438620001a3565b5b62000445825462000201565b6200045282828562000377565b600060209050601f8311600181146200048a576000841562000475578287015190505b620004818582620003f4565b865550620004f1565b601f1984166200049a8662000236565b60005b82811015620004c4578489015182556001820191506020850194506020810190506200049d565b86831015620004e45784890151620004e0601f891682620003d4565b8355505b6001600288020188555050505b505050505050565b6135f780620005096000396000f3fe608060405234801561001057600080fd5b50600436106101425760003560e01c806364140ec0116100b8578063a22cb4651161007c578063a22cb46514610389578063b88d4fde146103a5578063c87b56dd146103c1578063e9605544146103f1578063e985e9c51461040d578063f2fde38b1461043d57610142565b806364140ec0146102f757806370a0823114610313578063715018a6146103435780638da5cb5b1461034d57806395d89b411461036b57610142565b806323b872dd1161010a57806323b872dd146101ff5780632f745c591461021b578063412e5f491461024b57806342842e0e1461027b5780634f6ccce7146102975780636352211e146102c757610142565b806301ffc9a71461014757806306fdde0314610177578063081812fc14610195578063095ea7b3146101c557806318160ddd146101e1575b600080fd5b610161600480360381019061015c91906120e8565b610459565b60405161016e9190612130565b60405180910390f35b61017f6104d3565b60405161018c91906121db565b60405180910390f35b6101af60048036038101906101aa9190612233565b610565565b6040516101bc91906122a1565b60405180910390f35b6101df60048036038101906101da91906122e8565b6105ab565b005b6101e96106c2565b6040516101f69190612337565b60405180910390f35b61021960048036038101906102149190612352565b6106cf565b005b610235600480360381019061023091906122e8565b61072f565b6040516102429190612337565b60405180910390f35b61026560048036038101906102609190612233565b6107d4565b60405161027291906121db565b60405180910390f35b61029560048036038101906102909190612352565b610879565b005b6102b160048036038101906102ac9190612233565b610899565b6040516102be9190612337565b60405180910390f35b6102e160048036038101906102dc9190612233565b61090a565b6040516102ee91906122a1565b60405180910390f35b610311600480360381019061030c91906124da565b610990565b005b61032d60048036038101906103289190612536565b610a33565b60405161033a9190612337565b60405180910390f35b61034b610aea565b005b610355610afe565b60405161036291906122a1565b60405180910390f35b610373610b28565b60405161038091906121db565b60405180910390f35b6103a3600480360381019061039e919061258f565b610bba565b005b6103bf60048036038101906103ba9190612670565b610bd0565b005b6103db60048036038101906103d69190612233565b610c32565b6040516103e891906121db565b60405180910390f35b61040b600480360381019061040691906126f3565b610cee565b005b6104276004803603810190610422919061276b565b610dbe565b6040516104349190612130565b60405180910390f35b61045760048036038101906104529190612536565b610e52565b005b60007f780e9d63000000000000000000000000000000000000000000000000000000007bffffffffffffffffffffffffffffffffffffffffffffffffffffffff1916827bffffffffffffffffffffffffffffffffffffffffffffffffffffffff191614806104cc57506104cb82610ed5565b5b9050919050565b6060600080546104e2906127da565b80601f016020809104026020016040519081016040528092919081815260200182805461050e906127da565b801561055b5780601f106105305761010080835404028352916020019161055b565b820191906000526020600020905b81548152906001019060200180831161053e57829003601f168201915b5050505050905090565b600061057082610fb7565b6004600083815260200190815260200160002060009054906101000a900473ffffffffffffffffffffffffffffffffffffffff169050919050565b60006105b68261090a565b90508073ffffffffffffffffffffffffffffffffffffffff168373ffffffffffffffffffffffffffffffffffffffff1603610626576040517f08c379a000000000000000000000000000000000000000000000000000000000815260040161061d9061287d565b60405180910390fd5b8073ffffffffffffffffffffffffffffffffffffffff16610645611002565b73ffffffffffffffffffffffffffffffffffffffff16148061067457506106738161066e611002565b610dbe565b5b6106b3576040517f08c379a00000000000000000000000000000000000000000000000000000000081526004016106aa9061290f565b60405180910390fd5b6106bd838361100a565b505050565b6000600880549050905090565b6106e06106da611002565b826110c3565b61071f576040517f08c379a0000000000000000000000000000000000000000000000000000000008152600401610716906129a1565b60405180910390fd5b61072a838383611158565b505050565b600061073a83610a33565b821061077b576040517f08c379a000000000000000000000000000000000000000000000000000000000815260040161077290612a33565b60405180910390fd5b600660008473ffffffffffffffffffffffffffffffffffffffff1673ffffffffffffffffffffffffffffffffffffffff168152602001908152602001600020600083815260200190815260200160002054905092915050565b6060600c600083815260200190815260200160002080546107f4906127da565b80601f0160208091040260200160405190810160405280929190818152602001828054610820906127da565b801561086d5780601f106108425761010080835404028352916020019161086d565b820191906000526020600020905b81548152906001019060200180831161085057829003601f168201915b50505050509050919050565b61089483838360405180602001604052806000815250610bd0565b505050565b60006108a36106c2565b82106108e4576040517f08c379a00000000000000000000000000000000000000000000000000000000081526004016108db90612ac5565b60405180910390fd5b600882815481106108f8576108f7612ae5565b5b90600052602060002001549050919050565b60008061091683611451565b9050600073ffffffffffffffffffffffffffffffffffffffff168173ffffffffffffffffffffffffffffffffffffffff1603610987576040517f08c379a000000000000000000000000000000000000000000000000000000000815260040161097e90612b60565b60405180910390fd5b80915050919050565b61099861148e565b3373ffffffffffffffffffffffffffffffffffffffff166109b88361090a565b73ffffffffffffffffffffffffffffffffffffffff1614610a0e576040517f08c379a0000000000000000000000000000000000000000000000000000000008152600401610a0590612bf2565b60405180910390fd5b80600c60008481526020019081526020016000209081610a2e9190612dbe565b505050565b60008073ffffffffffffffffffffffffffffffffffffffff168273ffffffffffffffffffffffffffffffffffffffff1603610aa3576040517f08c379a0000000000000000000000000000000000000000000000000000000008152600401610a9a90612f02565b60405180910390fd5b600360008373ffffffffffffffffffffffffffffffffffffffff1673ffffffffffffffffffffffffffffffffffffffff168152602001908152602001600020549050919050565b610af261148e565b610afc600061150c565b565b6000600a60009054906101000a900473ffffffffffffffffffffffffffffffffffffffff16905090565b606060018054610b37906127da565b80601f0160208091040260200160405190810160405280929190818152602001828054610b63906127da565b8015610bb05780601f10610b8557610100808354040283529160200191610bb0565b820191906000526020600020905b815481529060010190602001808311610b9357829003601f168201915b5050505050905090565b610bcc610bc5611002565b83836115d2565b5050565b610be1610bdb611002565b836110c3565b610c20576040517f08c379a0000000000000000000000000000000000000000000000000000000008152600401610c17906129a1565b60405180910390fd5b610c2c8484848461173e565b50505050565b6060600b600183610c439190612f51565b81548110610c5457610c53612ae5565b5b906000526020600020018054610c69906127da565b80601f0160208091040260200160405190810160405280929190818152602001828054610c95906127da565b8015610ce25780601f10610cb757610100808354040283529160200191610ce2565b820191906000526020600020905b815481529060010190602001808311610cc557829003601f168201915b50505050509050919050565b610cf661148e565b610bb8610d016106c2565b10610d41576040517f08c379a0000000000000000000000000000000000000000000000000000000008152600401610d3890612fd1565b60405180910390fd5b60006001610d4d6106c2565b610d579190612ff1565b9050610d63338261179a565b600b83908060018154018082558091505060019003906000526020600020016000909190919091509081610d979190612dbe565b5081600c60008381526020019081526020016000209081610db89190612dbe565b50505050565b6000600560008473ffffffffffffffffffffffffffffffffffffffff1673ffffffffffffffffffffffffffffffffffffffff16815260200190815260200160002060008373ffffffffffffffffffffffffffffffffffffffff1673ffffffffffffffffffffffffffffffffffffffff16815260200190815260200160002060009054906101000a900460ff16905092915050565b610e5a61148e565b600073ffffffffffffffffffffffffffffffffffffffff168173ffffffffffffffffffffffffffffffffffffffff1603610ec9576040517f08c379a0000000000000000000000000000000000000000000000000000000008152600401610ec090613097565b60405180910390fd5b610ed28161150c565b50565b60007f80ac58cd000000000000000000000000000000000000000000000000000000007bffffffffffffffffffffffffffffffffffffffffffffffffffffffff1916827bffffffffffffffffffffffffffffffffffffffffffffffffffffffff19161480610fa057507f5b5e139f000000000000000000000000000000000000000000000000000000007bffffffffffffffffffffffffffffffffffffffffffffffffffffffff1916827bffffffffffffffffffffffffffffffffffffffffffffffffffffffff1916145b80610fb05750610faf826119b7565b5b9050919050565b610fc081611a21565b610fff576040517f08c379a0000000000000000000000000000000000000000000000000000000008152600401610ff690612b60565b60405180910390fd5b50565b600033905090565b816004600083815260200190815260200160002060006101000a81548173ffffffffffffffffffffffffffffffffffffffff021916908373ffffffffffffffffffffffffffffffffffffffff160217905550808273ffffffffffffffffffffffffffffffffffffffff1661107d8361090a565b73ffffffffffffffffffffffffffffffffffffffff167f8c5be1e5ebec7d5bd14f71427d1e84f3dd0314c0f7b2291e5b200ac8c7c3b92560405160405180910390a45050565b6000806110cf8361090a565b90508073ffffffffffffffffffffffffffffffffffffffff168473ffffffffffffffffffffffffffffffffffffffff16148061111157506111108185610dbe565b5b8061114f57508373ffffffffffffffffffffffffffffffffffffffff1661113784610565565b73ffffffffffffffffffffffffffffffffffffffff16145b91505092915050565b8273ffffffffffffffffffffffffffffffffffffffff166111788261090a565b73ffffffffffffffffffffffffffffffffffffffff16146111ce576040517f08c379a00000000000000000000000000000000000000000000000000000000081526004016111c590613129565b60405180910390fd5b600073ffffffffffffffffffffffffffffffffffffffff168273ffffffffffffffffffffffffffffffffffffffff160361123d576040517f08c379a0000000000000000000000000000000000000000000000000000000008152600401611234906131bb565b60405180910390fd5b61124a8383836001611a62565b8273ffffffffffffffffffffffffffffffffffffffff1661126a8261090a565b73ffffffffffffffffffffffffffffffffffffffff16146112c0576040517f08c379a00000000000000000000000000000000000000000000000000000000081526004016112b790613129565b60405180910390fd5b6004600082815260200190815260200160002060006101000a81549073ffffffffffffffffffffffffffffffffffffffff02191690556001600360008573ffffffffffffffffffffffffffffffffffffffff1673ffffffffffffffffffffffffffffffffffffffff168152602001908152602001600020600082825403925050819055506001600360008473ffffffffffffffffffffffffffffffffffffffff1673ffffffffffffffffffffffffffffffffffffffff16815260200190815260200160002060008282540192505081905550816002600083815260200190815260200160002060006101000a81548173ffffffffffffffffffffffffffffffffffffffff021916908373ffffffffffffffffffffffffffffffffffffffff160217905550808273ffffffffffffffffffffffffffffffffffffffff168473ffffffffffffffffffffffffffffffffffffffff167fddf252ad1be2c89b69c2b068fc378daa952ba7f163c4a11628f55a4df523b3ef60405160405180910390a461144c8383836001611bc0565b505050565b60006002600083815260200190815260200160002060009054906101000a900473ffffffffffffffffffffffffffffffffffffffff169050919050565b611496611002565b73ffffffffffffffffffffffffffffffffffffffff166114b4610afe565b73ffffffffffffffffffffffffffffffffffffffff161461150a576040517f08c379a000000000000000000000000000000000000000000000000000000000815260040161150190613227565b60405180910390fd5b565b6000600a60009054906101000a900473ffffffffffffffffffffffffffffffffffffffff16905081600a60006101000a81548173ffffffffffffffffffffffffffffffffffffffff021916908373ffffffffffffffffffffffffffffffffffffffff1602179055508173ffffffffffffffffffffffffffffffffffffffff168173ffffffffffffffffffffffffffffffffffffffff167f8be0079c531659141344cd1fd0a4f28419497f9722a3daafe3b4186f6b6457e060405160405180910390a35050565b8173ffffffffffffffffffffffffffffffffffffffff168373ffffffffffffffffffffffffffffffffffffffff1603611640576040517f08c379a000000000000000000000000000000000000000000000000000000000815260040161163790613293565b60405180910390fd5b80600560008573ffffffffffffffffffffffffffffffffffffffff1673ffffffffffffffffffffffffffffffffffffffff16815260200190815260200160002060008473ffffffffffffffffffffffffffffffffffffffff1673ffffffffffffffffffffffffffffffffffffffff16815260200190815260200160002060006101000a81548160ff0219169083151502179055508173ffffffffffffffffffffffffffffffffffffffff168373ffffffffffffffffffffffffffffffffffffffff167f17307eab39ab6107e8899845ad3d59bd9653f200f220920489ca2b5937696c31836040516117319190612130565b60405180910390a3505050565b611749848484611158565b61175584848484611bc6565b611794576040517f08c379a000000000000000000000000000000000000000000000000000000000815260040161178b90613325565b60405180910390fd5b50505050565b600073ffffffffffffffffffffffffffffffffffffffff168273ffffffffffffffffffffffffffffffffffffffff1603611809576040517f08c379a000000000000000000000000000000000000000000000000000000000815260040161180090613391565b60405180910390fd5b61181281611a21565b15611852576040517f08c379a0000000000000000000000000000000000000000000000000000000008152600401611849906133fd565b60405180910390fd5b611860600083836001611a62565b61186981611a21565b156118a9576040517f08c379a00000000000000000000000000000000000000000000000000000000081526004016118a0906133fd565b60405180910390fd5b6001600360008473ffffffffffffffffffffffffffffffffffffffff1673ffffffffffffffffffffffffffffffffffffffff16815260200190815260200160002060008282540192505081905550816002600083815260200190815260200160002060006101000a81548173ffffffffffffffffffffffffffffffffffffffff021916908373ffffffffffffffffffffffffffffffffffffffff160217905550808273ffffffffffffffffffffffffffffffffffffffff16600073ffffffffffffffffffffffffffffffffffffffff167fddf252ad1be2c89b69c2b068fc378daa952ba7f163c4a11628f55a4df523b3ef60405160405180910390a46119b3600083836001611bc0565b5050565b60007f01ffc9a7000000000000000000000000000000000000000000000000000000007bffffffffffffffffffffffffffffffffffffffffffffffffffffffff1916827bffffffffffffffffffffffffffffffffffffffffffffffffffffffff1916149050919050565b60008073ffffffffffffffffffffffffffffffffffffffff16611a4383611451565b73ffffffffffffffffffffffffffffffffffffffff1614159050919050565b611a6e84848484611d4d565b6001811115611ab2576040517f08c379a0000000000000000000000000000000000000000000000000000000008152600401611aa99061348f565b60405180910390fd5b6000829050600073ffffffffffffffffffffffffffffffffffffffff168573ffffffffffffffffffffffffffffffffffffffff1603611af957611af481611d53565b611b38565b8373ffffffffffffffffffffffffffffffffffffffff168573ffffffffffffffffffffffffffffffffffffffff1614611b3757611b368582611d9c565b5b5b600073ffffffffffffffffffffffffffffffffffffffff168473ffffffffffffffffffffffffffffffffffffffff1603611b7a57611b7581611f09565b611bb9565b8473ffffffffffffffffffffffffffffffffffffffff168473ffffffffffffffffffffffffffffffffffffffff1614611bb857611bb78482611fda565b5b5b5050505050565b50505050565b6000611be78473ffffffffffffffffffffffffffffffffffffffff16612059565b15611d40578373ffffffffffffffffffffffffffffffffffffffff1663150b7a02611c10611002565b8786866040518563ffffffff1660e01b8152600401611c329493929190613504565b6020604051808303816000875af1925050508015611c6e57506040513d601f19601f82011682018060405250810190611c6b9190613565565b60015b611cf0573d8060008114611c9e576040519150601f19603f3d011682016040523d82523d6000602084013e611ca3565b606091505b506000815103611ce8576040517f08c379a0000000000000000000000000000000000000000000000000000000008152600401611cdf90613325565b60405180910390fd5b805181602001fd5b63150b7a0260e01b7bffffffffffffffffffffffffffffffffffffffffffffffffffffffff1916817bffffffffffffffffffffffffffffffffffffffffffffffffffffffff191614915050611d45565b600190505b949350505050565b50505050565b6008805490506009600083815260200190815260200160002081905550600881908060018154018082558091505060019003906000526020600020016000909190919091505550565b60006001611da984610a33565b611db39190612f51565b9050600060076000848152602001908152602001600020549050818114611e98576000600660008673ffffffffffffffffffffffffffffffffffffffff1673ffffffffffffffffffffffffffffffffffffffff168152602001908152602001600020600084815260200190815260200160002054905080600660008773ffffffffffffffffffffffffffffffffffffffff1673ffffffffffffffffffffffffffffffffffffffff168152602001908152602001600020600084815260200190815260200160002081905550816007600083815260200190815260200160002081905550505b6007600084815260200190815260200160002060009055600660008573ffffffffffffffffffffffffffffffffffffffff1673ffffffffffffffffffffffffffffffffffffffff16815260200190815260200160002060008381526020019081526020016000206000905550505050565b60006001600880549050611f1d9190612f51565b9050600060096000848152602001908152602001600020549050600060088381548110611f4d57611f4c612ae5565b5b906000526020600020015490508060088381548110611f6f57611f6e612ae5565b5b906000526020600020018190555081600960008381526020019081526020016000208190555060096000858152602001908152602001600020600090556008805480611fbe57611fbd613592565b5b6001900381819060005260206000200160009055905550505050565b6000611fe583610a33565b905081600660008573ffffffffffffffffffffffffffffffffffffffff1673ffffffffffffffffffffffffffffffffffffffff168152602001908152602001600020600083815260200190815260200160002081905550806007600084815260200190815260200160002081905550505050565b6000808273ffffffffffffffffffffffffffffffffffffffff163b119050919050565b6000604051905090565b600080fd5b600080fd5b60007fffffffff0000000000000000000000000000000000000000000000000000000082169050919050565b6120c581612090565b81146120d057600080fd5b50565b6000813590506120e2816120bc565b92915050565b6000602082840312156120fe576120fd612086565b5b600061210c848285016120d3565b91505092915050565b60008115159050919050565b61212a81612115565b82525050565b60006020820190506121456000830184612121565b92915050565b600081519050919050565b600082825260208201905092915050565b60005b8381101561218557808201518184015260208101905061216a565b60008484015250505050565b6000601f19601f8301169050919050565b60006121ad8261214b565b6121b78185612156565b93506121c7818560208601612167565b6121d081612191565b840191505092915050565b600060208201905081810360008301526121f581846121a2565b905092915050565b6000819050919050565b612210816121fd565b811461221b57600080fd5b50565b60008135905061222d81612207565b92915050565b60006020828403121561224957612248612086565b5b60006122578482850161221e565b91505092915050565b600073ffffffffffffffffffffffffffffffffffffffff82169050919050565b600061228b82612260565b9050919050565b61229b81612280565b82525050565b60006020820190506122b66000830184612292565b92915050565b6122c581612280565b81146122d057600080fd5b50565b6000813590506122e2816122bc565b92915050565b600080604083850312156122ff576122fe612086565b5b600061230d858286016122d3565b925050602061231e8582860161221e565b9150509250929050565b612331816121fd565b82525050565b600060208201905061234c6000830184612328565b92915050565b60008060006060848603121561236b5761236a612086565b5b6000612379868287016122d3565b935050602061238a868287016122d3565b925050604061239b8682870161221e565b9150509250925092565b600080fd5b600080fd5b7f4e487b7100000000000000000000000000000000000000000000000000000000600052604160045260246000fd5b6123e782612191565b810181811067ffffffffffffffff82111715612406576124056123af565b5b80604052505050565b600061241961207c565b905061242582826123de565b919050565b600067ffffffffffffffff821115612445576124446123af565b5b61244e82612191565b9050602081019050919050565b82818337600083830152505050565b600061247d6124788461242a565b61240f565b905082815260208101848484011115612499576124986123aa565b5b6124a484828561245b565b509392505050565b600082601f8301126124c1576124c06123a5565b5b81356124d184826020860161246a565b91505092915050565b600080604083850312156124f1576124f0612086565b5b60006124ff8582860161221e565b925050602083013567ffffffffffffffff8111156125205761251f61208b565b5b61252c858286016124ac565b9150509250929050565b60006020828403121561254c5761254b612086565b5b600061255a848285016122d3565b91505092915050565b61256c81612115565b811461257757600080fd5b50565b60008135905061258981612563565b92915050565b600080604083850312156125a6576125a5612086565b5b60006125b4858286016122d3565b92505060206125c58582860161257a565b9150509250929050565b600067ffffffffffffffff8211156125ea576125e96123af565b5b6125f382612191565b9050602081019050919050565b600061261361260e846125cf565b61240f565b90508281526020810184848401111561262f5761262e6123aa565b5b61263a84828561245b565b509392505050565b600082601f830112612657576126566123a5565b5b8135612667848260208601612600565b91505092915050565b6000806000806080858703121561268a57612689612086565b5b6000612698878288016122d3565b94505060206126a9878288016122d3565b93505060406126ba8782880161221e565b925050606085013567ffffffffffffffff8111156126db576126da61208b565b5b6126e787828801612642565b91505092959194509250565b6000806040838503121561270a57612709612086565b5b600083013567ffffffffffffffff8111156127285761272761208b565b5b612734858286016124ac565b925050602083013567ffffffffffffffff8111156127555761275461208b565b5b612761858286016124ac565b9150509250929050565b6000806040838503121561278257612781612086565b5b6000612790858286016122d3565b92505060206127a1858286016122d3565b9150509250929050565b7f4e487b7100000000000000000000000000000000000000000000000000000000600052602260045260246000fd5b600060028204905060018216806127f257607f821691505b602082108103612805576128046127ab565b5b50919050565b7f4552433732313a20617070726f76616c20746f2063757272656e74206f776e6560008201527f7200000000000000000000000000000000000000000000000000000000000000602082015250565b6000612867602183612156565b91506128728261280b565b604082019050919050565b600060208201905081810360008301526128968161285a565b9050919050565b7f4552433732313a20617070726f76652063616c6c6572206973206e6f7420746f60008201527f6b656e206f776e6572206f7220617070726f76656420666f7220616c6c000000602082015250565b60006128f9603d83612156565b91506129048261289d565b604082019050919050565b60006020820190508181036000830152612928816128ec565b9050919050565b7f4552433732313a2063616c6c6572206973206e6f7420746f6b656e206f776e6560008201527f72206f7220617070726f76656400000000000000000000000000000000000000602082015250565b600061298b602d83612156565b91506129968261292f565b604082019050919050565b600060208201905081810360008301526129ba8161297e565b9050919050565b7f455243373231456e756d657261626c653a206f776e657220696e646578206f7560008201527f74206f6620626f756e6473000000000000000000000000000000000000000000602082015250565b6000612a1d602b83612156565b9150612a28826129c1565b604082019050919050565b60006020820190508181036000830152612a4c81612a10565b9050919050565b7f455243373231456e756d657261626c653a20676c6f62616c20696e646578206f60008201527f7574206f6620626f756e64730000000000000000000000000000000000000000602082015250565b6000612aaf602c83612156565b9150612aba82612a53565b604082019050919050565b60006020820190508181036000830152612ade81612aa2565b9050919050565b7f4e487b7100000000000000000000000000000000000000000000000000000000600052603260045260246000fd5b7f4552433732313a20696e76616c696420746f6b656e2049440000000000000000600082015250565b6000612b4a601883612156565b9150612b5582612b14565b602082019050919050565b60006020820190508181036000830152612b7981612b3d565b9050919050565b7f4f6e6c7920746865206f776e65722063616e206368616e67652074686520696d60008201527f6167650000000000000000000000000000000000000000000000000000000000602082015250565b6000612bdc602383612156565b9150612be782612b80565b604082019050919050565b60006020820190508181036000830152612c0b81612bcf565b9050919050565b60008190508160005260206000209050919050565b60006020601f8301049050919050565b600082821b905092915050565b600060088302612c747fffffffffffffffffffffffffffffffffffffffffffffffffffffffffffffffff82612c37565b612c7e8683612c37565b95508019841693508086168417925050509392505050565b6000819050919050565b6000612cbb612cb6612cb1846121fd565b612c96565b6121fd565b9050919050565b6000819050919050565b612cd583612ca0565b612ce9612ce182612cc2565b848454612c44565b825550505050565b600090565b612cfe612cf1565b612d09818484612ccc565b505050565b5b81811015612d2d57612d22600082612cf6565b600181019050612d0f565b5050565b601f821115612d7257612d4381612c12565b612d4c84612c27565b81016020851015612d5b578190505b612d6f612d6785612c27565b830182612d0e565b50505b505050565b600082821c905092915050565b6000612d9560001984600802612d77565b1980831691505092915050565b6000612dae8383612d84565b9150826002028217905092915050565b612dc78261214b565b67ffffffffffffffff811115612de057612ddf6123af565b5b612dea82546127da565b612df5828285612d31565b600060209050601f831160018114612e285760008415612e16578287015190505b612e208582612da2565b865550612e88565b601f198416612e3686612c12565b60005b82811015612e5e57848901518255600182019150602085019450602081019050612e39565b86831015612e7b5784890151612e77601f891682612d84565b8355505b6001600288020188555050505b505050505050565b7f4552433732313a2061646472657373207a65726f206973206e6f74206120766160008201527f6c6964206f776e65720000000000000000000000000000000000000000000000602082015250565b6000612eec602983612156565b9150612ef782612e90565b604082019050919050565b60006020820190508181036000830152612f1b81612edf565b9050919050565b7f4e487b7100000000000000000000000000000000000000000000000000000000600052601160045260246000fd5b6000612f5c826121fd565b9150612f67836121fd565b9250828203905081811115612f7f57612f7e612f22565b5b92915050565b7f4d6178696d756d206c696d697420726561636865640000000000000000000000600082015250565b6000612fbb601583612156565b9150612fc682612f85565b602082019050919050565b60006020820190508181036000830152612fea81612fae565b9050919050565b6000612ffc826121fd565b9150613007836121fd565b925082820190508082111561301f5761301e612f22565b5b92915050565b7f4f776e61626c653a206e6577206f776e657220697320746865207a65726f206160008201527f6464726573730000000000000000000000000000000000000000000000000000602082015250565b6000613081602683612156565b915061308c82613025565b604082019050919050565b600060208201905081810360008301526130b081613074565b9050919050565b7f4552433732313a207472616e736665722066726f6d20696e636f72726563742060008201527f6f776e6572000000000000000000000000000000000000000000000000000000602082015250565b6000613113602583612156565b915061311e826130b7565b604082019050919050565b6000602082019050818103600083015261314281613106565b9050919050565b7f4552433732313a207472616e7366657220746f20746865207a65726f2061646460008201527f7265737300000000000000000000000000000000000000000000000000000000602082015250565b60006131a5602483612156565b91506131b082613149565b604082019050919050565b600060208201905081810360008301526131d481613198565b9050919050565b7f4f776e61626c653a2063616c6c6572206973206e6f7420746865206f776e6572600082015250565b6000613211602083612156565b915061321c826131db565b602082019050919050565b6000602082019050818103600083015261324081613204565b9050919050565b7f4552433732313a20617070726f766520746f2063616c6c657200000000000000600082015250565b600061327d601983612156565b915061328882613247565b602082019050919050565b600060208201905081810360008301526132ac81613270565b9050919050565b7f4552433732313a207472616e7366657220746f206e6f6e20455243373231526560008201527f63656976657220696d706c656d656e7465720000000000000000000000000000602082015250565b600061330f603283612156565b915061331a826132b3565b604082019050919050565b6000602082019050818103600083015261333e81613302565b9050919050565b7f4552433732313a206d696e7420746f20746865207a65726f2061646472657373600082015250565b600061337b602083612156565b915061338682613345565b602082019050919050565b600060208201905081810360008301526133aa8161336e565b9050919050565b7f4552433732313a20746f6b656e20616c7265616479206d696e74656400000000600082015250565b60006133e7601c83612156565b91506133f2826133b1565b602082019050919050565b60006020820190508181036000830152613416816133da565b9050919050565b7f455243373231456e756d657261626c653a20636f6e736563757469766520747260008201527f616e7366657273206e6f7420737570706f727465640000000000000000000000602082015250565b6000613479603583612156565b91506134848261341d565b604082019050919050565b600060208201905081810360008301526134a88161346c565b9050919050565b600081519050919050565b600082825260208201905092915050565b60006134d6826134af565b6134e081856134ba565b93506134f0818560208601612167565b6134f981612191565b840191505092915050565b60006080820190506135196000830187612292565b6135266020830186612292565b6135336040830185612328565b818103606083015261354581846134cb565b905095945050505050565b60008151905061355f816120bc565b92915050565b60006020828403121561357b5761357a612086565b5b600061358984828501613550565b91505092915050565b7f4e487b7100000000000000000000000000000000000000000000000000000000600052603160045260246000fdfea2646970667358221220cbe71a0e0b694c4bb1e22c916b9989f5ee1361a659000e8e685120bccaa1b3fe64736f6c63430008140033",
  "linkReferences": {},
  "deployedLinkReferences": {}
}